:100800007597DE7597ADE4F5A975A41375A51875F0
:10081000F2F875E10175E20275E34075BC0953E831
:10082000F843E880AF88F588758D96758B968F882C
:10083000758E0875892043884043981075D10875D6
:10084000EF0675A8B875B820C2DE75DA4B75DB4BBC
:1008500075D90843D84043C804C202F52CF52D755C
:100860002513752688D299C2983098FDC298853391
:1008700034853233853132853031859930AF30124D
:100880000B3FE53012097808A36108AB6308B36435
:1008900008BB6708C47308C87808D07908D87A00FC
:1008A0000008E3D200AF26AE258033D200AF22AEDF
:1008B00021802BAF277E00D2008023D202E4F52CCA
:1008C000F52D80A5C20280A1D200AF29AE28800EEE
:1008D000D200AF2BAE2A8006D200AF2FAE2E120A66
:1008E000938086E53464767080C200AF26AE251210
:0E08F0000A938E258F26E4F52CF52D0208695B
:0E0B3F00AE2374352EF8A60705235323072294
:100A93008E088F09E4FBFA902710750B04C201E559
:100AA3000B60607C007D0AAF82AE831209108E83D7
:100AB3008F82150B7430250BF8E624D0F50AC39406
:100AC300004007E50AD3940A4002D201AF0A7E0030
:100AD300AD82AC831208FEEF2BFBEE3AFA3000BF77
:100AE300AE08AF09120910AA06AB07EF2430FF12B4
:100AF3000B3FAE08AF09AD82AC831209108C088D91
:100B030009809C7F0A120B3F7F0D120B3F300106B9
:0A0B13007A137B88C202AE02AF0322
:010B1D0022B5
:100B1E008FBBE4FF43E810E5E820E4FB0FBF02F4CF
:100B2E00AFBDAEBE7C177DB412099E780A12096560
:010B3E002294
:03001B00020B597C
:010B59003269
:03002B000209CBFC
:1009CB00C0E0C0F0C0D075D000C000C004C005C0EE
:0309DB0006C0074C
:1009DE00D2947F08120B1E8E288F297F09120B1EB0
:1009EE008E2A8F2B7F0A120B1E8E2E8F2FC3E52B76
:1009FE00952FFFE52A952EFE7C007D0A1208FE8EAD
:100A0E00218F22AE2EAF2FAC25AD26C3ED9FFFEC6E
:100A1E009EFEEF252DF52DEE352CF52C7C007D055B
:100A2E001208FEAC06AD07E52D25E0FFE52C33FEE2
:100A3E00ED2FFFEC3EFEEF780ACEA2E713CE13D8D1
:100A4E00F8FFC3EE6480948040032002027F008F83
:100A5E0027C374FF9FF5EAF5FCE5236524600EAF0E
:100A6E002474352FF8E6F599052453240775CDFF28
:040A7E00C2CFC2948D
:100A8200D007D006D005D004D000D0D0D0F0D0E02E
:010A92003231
:03000000020B4DA3
:0C0B4D00787FE4F6D8FD75813C020800BA
:1008FE00EF8DF0A4A8F0CF8CF0A428CE8DF0A42E0E
:02090E00FE22C7
:10091000BC000BBE0029EF8DF084FFADF022E4CCCB
:10092000F875F008EF2FFFEE33FEEC33FCEE9DEC94
:10093000984005FCEE9DFE0FD5F0E9E4CEFD22EDDA
:10094000F8F5F0EE8420D21CFEADF075F008EF2F24
:10095000FFED33FD4007985006D5F0F222C398FD15
:050960000FD5F0EA22B2
:10096500E8600FECC313FCED13FDEE13FEEF13FF70
:03097500D8F12294
:10097800D083D082F8E4937012740193700DA3A30E
:1009880093F8740193F5828883E473740293686022
:06099800EFA3A3A380DF22
:10099E00EC8EF0A4CCC5F0CCCDF8EFA4CEC5F02DE6
:1009AE00FDE43CFCE8A42EC8C5F03DFDE43CFCEFA4
:0D09BE00A4FFE5F028FEE43DFDE43CFC2232
:00000001FF
