:10096C007597DE7597ADE4F5A975A41375A511758A
:10097C00F2F875D50475E10175E20275E34075BBBB
:10098C000A75BC0953E8F843E880AF88F588758D83
:10099C0096758B968F88758E087589204388404391
:1009AC00981075D10875EF06F5E675A8A875B820EE
:1009BC00C2DE75FC8075DA4B75EA8075DB4B75D938
:0A09CC000843D84043C82843C8047C
:0109D60022FE
:1008000012096C120AC6E4F54DF54CF54BF54A7524
:10081000FC8075EA80D294309842C298AF99EF2458
:10082000CE601314601C240270327F08120AAB12CF
:1008300009D77F0880167F09120AAB1209D77F09F2
:10084000800A7F0A120AAB1209D77F0A120AAB127A
:1008500009D77F0A120A997F0D120A99C294E47F80
:10086000C8FEFDFCAB4DAA4CA94BA84AC31208E434
:0D08700040ECE4F54DF54CF54BF54A809257
:100A5300C3ED9FFFEC9EFEAC02AD0312087DD3EF06
:100A630094FAEE6480948040037FFA22C3EF9405E6
:0A0A7300EE6480948050037F05229A
:010A7D002256
:03001B00020A1BBB
:100A1B00C0E0C0D075D000C004C005C006C007AF91
:100A2B004DAE4CAD4BAC4AEF2401FFE43EFEE43D32
:100A3B00FDE43C8F4D8E4C8D4BF54AD007D006D044
:080A4B0005D004D0D0D0E03248
:03002B000208F5D3
:1008F500C0E0C0F0C083C082C0D075D000C000C0C9
:1009050001C002C003C004C005C006C007E55524E8
:1009150001FFE43554FEE43553FDE435528F558E21
:10092500548D53F552E47F02FEFDFCAB55AA54A944
:1009350053A852C31208E4700F120A7E755500754C
:100945005400755300755200C2CFC2CED007D006F1
:10095500D005D004D003D002D001D000D0D0D082B1
:07096500D083D0F0D0E03296
:080AC600D299E4F508F549227C
:100A7E00E5086549601474092549F8E6FF120ACEA7
:0B0A8E000549E549B44003E4F54922A6
:100A99000508E508B44003E4F50874092508F8A633
:020AA900072222
:080ACE003099FDC2998F9922B5
:1009D700AB07AA06902710E58245836036AF03AEC2
:1009E70002AD82AC8312088F8E588F59AD82AC83CB
:1009F70012087DC3EB9FFBEA9EFAE5592430FF12EC
:100A07000A997C007D0AAF82AE8312088F8E838F8E
:030A17008280C416
:010A1A0022B9
:0F0AAB008FBB43E810E5E820E4FBAFBDAEBE22F1
:03000000020ABA37
:0C0ABA00787FE4F6D8FD75815902080031
:10087D00EF8DF0A4A8F0CF8CF0A428CE8DF0A42E8F
:02088D00FE2249
:10088F00BC000BBE0029EF8DF084FFADF022E4CC4D
:10089F00F875F008EF2FFFEE33FEEC33FCEE9DEC16
:1008AF00984005FCEE9DFE0FD5F0E9E4CEFD22ED5C
:1008BF00F8F5F0EE8420D21CFEADF075F008EF2FA6
:1008CF00FFED33FD4007985006D5F0F222C398FD97
:0508DF000FD5F0EA2234
:1008E400EB9FF5F0EA9E42F0E99D42F0E89C45F06A
:0108F40022E1
:00000001FF
