:10098D007597DE7597ADE4F5A975A41175A511756B
:10099D00F2FB75D50475E10175E20275E34075BB97
:1009AD000A75BC0953E8F843E880AF88F588758D62
:1009BD0096758B968F88758E087589204388404370
:1009CD00981075D10875EF06F5E675A888C2DE7525
:1009DD00FC8075DA4B75EA8075DB4B75D90843D809
:0109ED0040C9
:0109EE0022E6
:1009220012098D120AA4C200C2943000FBD294C2F2
:1009320000120A8B8E298F2A7B0A7A007D2C7C0179
:10094200120A338FFC7BF67AFF7D2C7C01AF2AAE34
:1009520029120A338FEA3098CFC298AF99EF249EBA
:1009620060160470C3AF2AAE291209EF7F0A120A79
:10097200797F0D120A7980B0AFFC7E001209EF7FF9
:0B0982000A120A797F0D120A79809D8D
:100A3300C3ED9FFFEC9EFEAC02AD031208AAD3EFF9
:100A430094FAEE6480948040037FFA22C3EF940506
:0A0A5300EE6480948050037F0522BA
:010A5D002276
:03001B00020800D8
:10080000C0E0C0F0C083C082C0D075D000C000C0BE
:1008100001C002C003C004C005C006C007E524240F
:1008200001FFE43523FEE43522FDE435218F248EDB
:10083000238D22F521E5282401FFE43527FEE43548
:1008400026FDE435258F288E278D26F525E47FD0DB
:100850007E07FDFCAB24AA23A922A821C3120911FB
:10086000700AD200F524F523F522F521E47F32FE4B
:10087000FDFCAB28AA27A926A825C3120911700FD1
:10088000120A5E752800752700752600752500D0B0
:1008900007D006D005D004D003D002D001D000D0BC
:0A08A000D0D082D083D0F0D0E03237
:080AA400D299E4F508F51922CE
:100A5E00E5086519601474092519F8E6FF120AAC49
:0B0A6E000519E519B41003E4F5192286
:100A79000508E508B41003E4F50874092508F8A683
:020A8900072242
:080AAC003099FDC2998F9922D7
:1009EF00AB07AA06902710E58245836036AF03AEAA
:1009FF0002AD82AC831208BC8E2B8F2CAD82AC83E0
:100A0F001208AAC3EB9FFBEA9EFAE52C2430FF12D3
:100A1F000A797C007D0AAF82AE831208BC8E838F69
:030A2F008280C4FE
:010A320022A1
:0D0A8B0043E810E5E820E4FBAFBDAEBE225D
:03000000020A9859
:0C0A9800787FE4F6D8FD75812C0209225D
:1008AA00EF8DF0A4A8F0CF8CF0A428CE8DF0A42E62
:0208BA00FE221C
:1008BC00BC000BBE0029EF8DF084FFADF022E4CC20
:1008CC00F875F008EF2FFFEE33FEEC33FCEE9DECE9
:1008DC00984005FCEE9DFE0FD5F0E9E4CEFD22ED2F
:1008EC00F8F5F0EE8420D21CFEADF075F008EF2F79
:1008FC00FFED33FD4007985006D5F0F222C398FD6A
:05090C000FD5F0EA2206
:10091100EB9FF5F0EA9E42F0E99D42F0E89C45F03C
:0109210022B3
:00000001FF
