:1009BA007597DE7597ADE4F5A975A41375A5187535
:1009CA00F2F875E10175E20275E34075BC0953E876
:1009DA00F843E880AF88F588758D96758B968F8871
:1009EA00758E0875892043884043981075D108751B
:1009FA00EF0675A8B875B820C2DE75DA4B75DB4B01
:100A0A0075D90843D84043C804C200F529F52A75A8
:100A1A002314752482D299C2983098FDC2988530E1
:100A2A0031852F30852E2F852D2E85992DAF2D12AC
:100A3A000C06E52D2499602B24FE601424FA601814
:100A4A0024FC602324127023D201AF24AE23800E2B
:100A5A00D201AF26AE258006D201AF2CAE2B120BE7
:100A6A004E80B6D20080B2C20080AEE531B476A91B
:0F0A7A00C201AF24AE23120B4E8E238F24809A1D
:0E0C0600AE2174322EF8A607052153210722D5
:100B4E008E0C8F0DE4FBFA902710750E04E50E60E7
:100B5E00517C007D0AAF82AE831208128E838F8283
:100B6E00150E742D250EF8E624D0FFE434FFFEADED
:100B7E0082AC83120800EF2BFBEE3AFA3001CEAEB8
:100B8E000CAF0D120812AA06AB07EF2430FF120CA1
:100B9E0006AE0CAF0DAD82AC831208128C0C8D0D0F
:100BAE0080AB7F0A120C067F0D120C06AE02AF034D
:010BBE002214
:100BBF008FBB43E810E5E820E4FB43E810E5E820AD
:100BCF00E4FBAFBDAEBEE48F0B8E0AF509F508ADA1
:100BDF0009AC087B267A17F9F812089D8F0B8E0A3D
:100BEF008D098C08E47BE87A03F9F81209288F0B3A
:060BFF008E0A8D098C082E
:010C050022CC
:03001B00020C20B4
:010C200032A1
:03002B00020A893D
:100A8900C0E0C0F0C083C082C0D075D000C000C033
:0D0A990001C002C003C004C005C006C007B4
:100AA600D2947F08120BBF8E258F267F09120BBFAB
:100AB6008E278F287F0A120BBF8E2B8F2CAE2BAF63
:100AC6002CAC23AD24C3ED9FFFEC9EFEEF252AF54B
:100AD6002AEE3529F5297C007D05120800AB07AA08
:100AE60006E52A25E0FFE52933FEEF2BFBEE3A7CEF
:100AF600037DE8AF03FE120867AA06AB07C3EA64E4
:100B060080948040032000027B00C374FF9BF5EABB
:100B1600F5FCE5216522600EAF2274322FF8E6F56A
:0D0B260099052253220775CDFFC2CFC2945E
:100B3300D007D006D005D004D003D002D001D00016
:0B0B4300D0D0D082D083D0F0D0E032C0
:03000000020C14DB
:0C0C1400787FE4F6D8FD7581390209BA3A
:10080000EF8DF0A4A8F0CF8CF0A428CE8DF0A42E0C
:02081000FE22C6
:10081200BC000BBE0029EF8DF084FFADF022E4CCCA
:10082200F875F008EF2FFFEE33FEEC33FCEE9DEC93
:10083200984005FCEE9DFE0FD5F0E9E4CEFD22EDD9
:10084200F8F5F0EE8420D21CFEADF075F008EF2F23
:10085200FFED33FD4007985006D5F0F222C398FD14
:050862000FD5F0EA22B1
:10086700C2D5EC30E709B2D5E4C39DFDE49CFCEEAC
:1008770030E715B2D5E4C39FFFE49EFE120812C30A
:10088700E49DFDE49CFC800312081230D507C3E405
:060897009FFFE49EFE221B
:10089D00E88FF0A4CC8BF0A42CFCE98EF0A42CFCFA
:1008AD008AF0EDA42CFCEA8EF0A4CDA8F08BF0A478
:1008BD002DCC3825F0FDE98FF0A42CCD35F0FCEBD7
:1008CD008EF0A4FEA9F0EB8FF0A4CFC5F02ECD399C
:0F08DD00FEE43CFCEAA42DCE35F0FDE43CFC2209
:1008EC0075F008758200EF2FFFEE33FECD33CDCCC3
:1008FC0033CCC58233C5829BED9AEC99E582984046
:10090C000CF582EE9BFEED9AFDEC99FC0FD5F0D622
:10091C00E4CEFBE4CDFAE4CCF9A88222B800C1B94C
:10092C000059BA002DEC8BF084CFCECDFCE5F0CB8A
:10093C00F97818EF2FFFEE33FEED33FDEC33FCEBC3
:10094C0033FB10D703994004EB99FB0FD8E5E4F97E
:10095C00FA227818EF2FFFEE33FEED33FDEC33FC6B
:10096C00C933C910D7059BE99A4007EC9BFCE99A5F
:10097C00F90FD8E0E4C9FAE4CCFB2275F010EF2FA4
:10098C00FFEE33FEED33FDCC33CCC833C810D707A4
:10099C009BEC9AE899400AED9BFDEC9AFCE899F8DF
:0E09AC000FD5F0DAE4CDFBE4CCFAE4C8F92272
:00000001FF
