:100905007597DE7597ADE4F5A975A41375A51875EA
:10091500F2F875E10175E20275E34075BC0953E82B
:10092500F843E880AF88F588758D96758B968F8826
:10093500758E0875892043884043981075D10875D0
:10094500EF0675A8B875B820C2DE75FC8075DA802B
:1009550075DA4B75EA8075DB8075DB4B75D9084315
:08096500D84043C82843C80430
:01096D002267
:10096E00120905120AEED294D293E4F525F524F578
:10097E0023F522FD7FFF7E80120AC07D017FFF7E60
:10098E0088120AC0C298E4F530740A2530F8E6FFE2
:10099E00120AAD0530E530C3940840ED7F0A120A05
:1009AE00AD7F0D120AADE47F507EC3FDFCAB25AAD0
:1009BE0024A923A822C31208F440EBE4F525F5245C
:0609CE00F523F52280C0B4
:100A8200C3ED9FFFEC9EFEAC02AD0312088DD3EFC7
:100A920094FAEE6480948040037FFA22C3EF9405B7
:0A0AA200EE6480948050037F05226B
:010AAC002227
:03001B00020A18BE
:100A1800C0E0C0D075D000C004C005C006C007AF94
:100A280025AE24AD23AC22EF2401FFE43EFEE43DD5
:100A3800FDE43C8F258E248D23F522D007D006D0E7
:080A480005D004D0D0D0E0324B
:03002B00020800C8
:10080000C0E0C0F0C083C082C0D075D000C000C0BE
:1008100001C002C003C004C005C006C007E52D2406
:1008200001FFE4352CFEE4352BFDE4352A8F2D8EB7
:100830002C8D2BF52AE47F02FEFDFCAB2DAA2CA902
:100840002BA82AC31208F47025E50865096013AFC8
:100850000974122FF8E6F5990509E509B410037536
:100860000900752D00752C00752B00752A00C2CF6C
:10087000C2CED007D006D005D004D003D002D0011C
:0D088000D000D0D0D082D083D0F0D0E032B4
:03002300020A507E
:0D0A5000C0E0C0D075D000C000C006C007D7
:100A5D00309817E4FF740B2FF8E6FE740A2FF8A6F2
:0A0A6D00060FBF07F0859911C2982B
:0B0A7700D007D006D000D0D0D0E03275
:080AEE00D299E4F508F5092294
:100AAD00AE0874122EF8A6070508E508B41003E485
:030ABD00F5082217
:1009D400AB07AA06902710E58245836036AF03AEC5
:1009E40002AD82AC8312089F8E2E8F2FAD82AC8312
:1009F40012088DC3EB9FFBEA9EFAE52F2430FF1209
:100A04000AAD7C007D0AAF82AE8312089F8E838F6D
:030A14008280C419
:010A170022BC
:0F0AD3008FBB43E810E5E820E4FBAFBDAEBE22C9
:100AC000AB07AA06ED70048BFB8AFCBD01048BE921
:030AD0008AEA228D
:03000000020AE20F
:0C0AE200787FE4F6D8FD75813002096EC3
:10088D00EF8DF0A4A8F0CF8CF0A428CE8DF0A42E7F
:02089D00FE2239
:10089F00BC000BBE0029EF8DF084FFADF022E4CC3D
:1008AF00F875F008EF2FFFEE33FEEC33FCEE9DEC06
:1008BF00984005FCEE9DFE0FD5F0E9E4CEFD22ED4C
:1008CF00F8F5F0EE8420D21CFEADF075F008EF2F96
:1008DF00FFED33FD4007985006D5F0F222C398FD87
:0508EF000FD5F0EA2224
:1008F400EB9FF5F0EA9E42F0E99D42F0E89C45F05A
:0109040022D0
:00000001FF
