:1008420012090C1209201209241208E41208EE12ED
:1008520008CB1208BD12086C1208F81209281209F6
:0A0862002C1209301209130208AE2F
:07090C007597DE7597AD221F
:04092000E4F5A9222F
:0409240075A4112283
:0A08E40075A50175F2FB75D504221D
:0A08EE0075E10175E20175E3402297
:0D08CB0075BB0A75BC0953E8F843E88222AA
:0D08BD00AF88758800758D96758B968F88B5
:0108CA00220B
:10086C00E5C8540453C8FB75CDFF75CCFF75CBFEA2
:08087C0075CA0243C80442C81A
:010884002251
:0A08F800758E0875892043884022A0
:0409280043981022BE
:04092C0075D1082257
:0409300075EF062237
:0709130075E61075A88022B3
:0F08AE00C2DE75FC8075DA4B75D90843D840223D
:10088500120842E4F510E5BDAEBE7802CEC313CE24
:0708950013D8F9F51080EF04
:0A090200E4F50EF50FF50CF50D22DB
:10080000C374649FFFE49EAB07FA7C007D0AFE126E
:10081000089C8E088F09EB250BF50BEA350AF50AC3
:10082000FEC3EB950DFDEA950CFC8A0C8B0DAB0914
:10083000AA08E50B2BFBEE3AFAED2BFBEC3AFEAFE8
:0108400003B4
:010841002294
:03005B0002091A7D
:06091A00C2D88510FC327A
:030000000208D81B
:0C08D800787FE4F6D8FD758110020885D9
:10089C00EF8DF0A4A8F0CF8CF0A428CE8DF0A42E70
:0208AC00FE222A
:00000001FF
