:100C76007597DE7597ADE4F5A975A41375A5187576
:100C8600F2F875E10175E20275E34075BC0953E8B7
:100C9600F843E880AF88F588758D96758B968F88B2
:100CA600758E0875892043884043981075D108755C
:100CB600EF0675A8B875B820C2DE75FC8075DA80B7
:100CC60075DA4B75EA8075DB8075DB4B75D90843A1
:050CD600D84043C804F2
:010CDB0022F6
:100A8200D200752113752288E4F52DF52EF52FF588
:100A920030120C76120E50D294D293C298E4F51F03
:100AA200D2947F08120D898E278F287F09120D8913
:100AB2008E298F2A7F0A120D898E2B8F2CE4F52323
:100AC200F52474FFF525F52630005D7B007A007968
:100AD2002D753800753901E4F53AF53B753C7575AD
:100AE2003D30AD22AC21120BF6C3E49FFFE49EFE23
:100AF200EF2524F524EE3523F5237B007A00792FA8
:100B0200753800753902753A00753B01753C75758B
:100B12003D30AD22AC21AF2CAE2B120BF6C3E52635
:100B22009FF526E5259EF525C201AF24AE23120EC0
:100B320037D201AF26AE25120E37300207AF0A12A6
:100B42000E13C202E50A2499602E24FD602124F7C7
:100B5200602A24FA600D14601024027021AF28AEBE
:100B6200278010AF2AAE29800AAF2CAE2B80047FDB
:100B72000B7E00120D388006D2008002C200AF0B3D
:100B8200120E26C0D0AF0A120E26D0F082F7C0D0C5
:100B9200AF0C120E26D0F082F7C0D0AF0D120E2687
:100BA200D0F082F7503FE50E120A460BD5630BCA0E
:100BB200640BC8690BE06C0BC6700BDA750BCC7654
:100BC20000000BE7800D800B8009120CDC8E218F58
:100BD20022800F120CDC800A7F067E0080047F07D1
:100BE2007E00120D38C294E51FC3940640F9E4F565
:040BF2001F020AA232
:060BF6008B358A368937B9
:100BFC00C3ED9FFFEC9EAB07FAAE38AF39AD03FCEB
:100C0C001208198E3E8F3FAC3AAD3BAE02AF0312C9
:100C1C000880AB35AA36EE8FF01208E1AB35AA3658
:100C2C00A9371208B6AEF0253FF53FEE353EF53E3E
:100C3C00D3E53F953DE53C6480F8E53E6480984003
:100C4C00047F0180027F00C3E53E648094805004E1
:100C5C007E0180027E00EE4F600BE4F53EF53FF521
:090C6C0035F536F537AE3EAF3F19
:010C7500225C
:03001B00020E587A
:010E58003267
:03002B00020DC8FB
:100DC800C0E0C0D075D000C000C007051FE50865A9
:100DD800096013AF09740F2FF8E6F5990509E509BD
:100DE800B4100375090075CDFAC2CFD007D000D072
:040DF800D0D0E03245
:03002300020DFCCF
:100DFC00309813C298850D0E850C0D850B0C850A49
:070E0C000B85990AD20232A6
:080E5000D299E4F508F509222E
:100E1300AE08740F2EF8A6070508E508B41003E41E
:030E2300F50822AD
:100E2600EFD39439400122EFC394305002C322D34A
:010E36002299
:100D3800AB07AA06902710E58245836036AF03AE5D
:100D480002AD82AC8312082B8E318F32AD82AC8318
:100D5800120819C3EB9FFBEA9EFAE5322430FF1212
:100D68000E137C007D0AAF82AE8312082B8E838F10
:100D78008280C47F0A120E137F0D120E13E4F50A47
:010D88002248
:100CDC007A00790D75310075320075330D75350359
:100CEC007536E8E4F537F538F534783174FFF5F0FE
:100CFC00120A3612080024D0FFE434FFFEAC35ADE6
:100D0C0036120819EF2538F538EE3537F537AE358C
:100D1C00AF367C007D0A12082B8E358F360534E5F4
:0B0D2C0034B404C6E4F50AAE37AF385B
:010D37002299
:100D89008FBB43E810E5E820E4FBAFBDAEBEE48FBE
:100D9900348E33F532F531AD32AC317B267A17F921
:100DA900F81209198F348E338D328C31E47BE87A4D
:0E0DB90003F9F81209A48F348E338D328C3179
:010DC7002209
:0D0E37003001058FE98EEA228FFB8EFC2230
:03000000020E44A9
:0C0E4400787FE4F6D8FD75813F020A8239
:10080000BB010689828A83E0225002E722BBFE02F6
:09081000E32289828A83E4932229
:10081900EF8DF0A4A8F0CF8CF0A428CE8DF0A42EF3
:02082900FE22AD
:10082B00BC000BBE0029EF8DF084FFADF022E4CCB1
:10083B00F875F008EF2FFFEE33FEEC33FCEE9DEC7A
:10084B00984005FCEE9DFE0FD5F0E9E4CEFD22EDC0
:10085B00F8F5F0EE8420D21CFEADF075F008EF2F0A
:10086B00FFED33FD4007985006D5F0F222C398FDFB
:05087B000FD5F0EA2298
:10088000C2D5EC30E709B2D5E4C39DFDE49CFCEE93
:1008900030E715B2D5E4C39FFFE49EFE12082BC3D8
:1008A000E49DFDE49CFC800312082B30D507C3E4D3
:0608B0009FFFE49EFE2202
:1008B600BB010A89828A83E0F5F0A3E0225006870D
:1008C600F009E71922BBFE07E3F5F009E3192289CF
:0B08D600828A83E493F5F07401932202
:1008E100BB010789828A83020A6C500B09C5F02774
:1008F100F7C5F01937F722BBFE0D09F8E325F0F330
:10090100C5F019E338F322F889828A8374019325AB
:08091100F0C5F0F8E493382270
:10091900E88FF0A4CC8BF0A42CFCE98EF0A42CFC7D
:100929008AF0EDA42CFCEA8EF0A4CDA8F08BF0A4FB
:100939002DCC3825F0FDE98FF0A42CCD35F0FCEB5A
:100949008EF0A4FEA9F0EB8FF0A4CFC5F02ECD391F
:0F095900FEE43CFCEAA42DCE35F0FDE43CFC228C
:1009680075F008758200EF2FFFEE33FECD33CDCC46
:1009780033CCC58233C5829BED9AEC99E5829840C9
:100988000CF582EE9BFEED9AFDEC99FC0FD5F0D6A6
:10099800E4CEFBE4CDFAE4CCF9A88222B800C1B9D0
:1009A8000059BA002DEC8BF084CFCECDFCE5F0CB0E
:1009B800F97818EF2FFFEE33FEED33FDEC33FCEB47
:1009C80033FB10D703994004EB99FB0FD8E5E4F902
:1009D800FA227818EF2FFFEE33FEED33FDEC33FCEF
:1009E800C933C910D7059BE99A4007EC9BFCE99AE3
:1009F800F90FD8E0E4C9FAE4CCFB2275F010EF2F28
:100A0800FFEE33FEED33FDCC33CCC833C810D70727
:100A18009BEC9AE899400AED9BFDEC9AFCE899F862
:0E0A28000FD5F0DAE4CDFBE4CCFAE4C8F922F5
:100A3600FAE6FB0808E6F925F0F618E6CA3AF622C1
:100A4600D083D082F8E4937012740193700DA3A33F
:100A560093F8740193F5828883E473740293686053
:060A6600EFA3A3A380DF53
:100A6C00C5F0F8A3E028F0C5F0F8E5821582700215
:060A7C001583E038F022B2
:00000001FF
