:100970007597DE7597ADE4F5A975A41175A5117588
:10098000F2F875D50475E10175E20275E34075BBB7
:100990000A75BC0953E8F843E880AF88F588758D7F
:1009A00096758B968F88758E08758920438840438D
:1009B000981075D10875EF06F5E675A8A875B820EA
:1009C000C2DE75FC8075DA4B75EA8075DB4B75D934
:0A09D0000843D84043C82843C80478
:0109DA0022FA
:10080000120970120ACAE4F54DF54CF54BF54AD2BF
:10081000947F08120AAF8E568F577B0A7A007D2C80
:100820007C01120A578FFC7BF67AFF7D2C7C01AF8E
:1008300057AE56120A578FEAC294D294309821C20A
:1008400098AF99EF249E6007047015AFFC8002AF4B
:10085000EA7E001209DB7F0A120A9D7F0D120A9DB3
:10086000C294E47FC8FEFDFCAB4DAA4CA94BA84A3C
:10087000C31208E840ECE4F54DF54CF54BF54A8021
:010880008EE9
:100A5700C3ED9FFFEC9EFEAC02AD03120881D3EFFE
:100A670094FAEE6480948040037FFA22C3EF9405E2
:0A0A7700EE6480948050037F052296
:010A81002252
:03001B00020A1FB7
:100A1F00C0E0C0D075D000C004C005C006C007AF8D
:100A2F004DAE4CAD4BAC4AEF2401FFE43EFEE43D2E
:100A3F00FDE43C8F4D8E4C8D4BF54AD007D006D040
:080A4F0005D004D0D0D0E03244
:03002B000208F9CF
:1008F900C0E0C0F0C083C082C0D075D000C000C0C5
:1009090001C002C003C004C005C006C007E55524E4
:1009190001FFE43554FEE43553FDE435528F558E1D
:10092900548D53F552E47F02FEFDFCAB55AA54A940
:1009390053A852C31208E8700F120A827555007540
:100949005400755300755200C2CFC2CED007D006ED
:10095900D005D004D003D002D001D000D0D0D082AD
:07096900D083D0F0D0E03292
:080ACA00D299E4F508F5492278
:100A8200E5086549601474092549F8E6FF120AD29F
:0B0A92000549E549B44003E4F54922A2
:100A9D000508E508B44003E4F50874092508F8A62F
:020AAD0007221E
:080AD2003099FDC2998F9922B1
:1009DB00AB07AA06902710E58245836036AF03AEBE
:1009EB0002AD82AC831208938E588F59AD82AC83C3
:1009FB00120881C3EB9FFBEA9EFAE5592430FF12E4
:100A0B000A9D7C007D0AAF82AE831208938E838F82
:030A1B008280C412
:010A1E0022B5
:0F0AAF008FBB43E810E5E820E4FBAFBDAEBE22ED
:03000000020ABE33
:0C0ABE00787FE4F6D8FD7581590208002D
:10088100EF8DF0A4A8F0CF8CF0A428CE8DF0A42E8B
:02089100FE2245
:10089300BC000BBE0029EF8DF084FFADF022E4CC49
:1008A300F875F008EF2FFFEE33FEEC33FCEE9DEC12
:1008B300984005FCEE9DFE0FD5F0E9E4CEFD22ED58
:1008C300F8F5F0EE8420D21CFEADF075F008EF2FA2
:1008D300FFED33FD4007985006D5F0F222C398FD93
:0508E3000FD5F0EA2230
:1008E800EB9FF5F0EA9E42F0E99D42F0E89C45F066
:0108F80022DD
:00000001FF
