:100976007597DE7597ADE4F5A975A41375A5117580
:10098600F2F875D50475E10175E20275E34075BBB1
:100996000A75BC0953E8F843E880AF88F588758D79
:1009A60096758B968F88758E087589204388404387
:1009B600981075D10875EF06F5E675A8A875B820E4
:1009C600C2DE75FC8075DA4B75EA8075DB4B75D92E
:0A09D6000843D84043C82843C80472
:0109E00022F4
:10080000120976120AD0E4F54DF54CF54BF54A7510
:10081000FCFF75EAFFD29430984CC298AF99EF2450
:10082000CE601514601614601E2403701CE5FCC312
:1008300094FF501505FC801115FC800DE5EAC3946A
:10084000FF500605EA800215EAAFFC7E001209E1BE
:100850007F2C120AA3AFEA7E001209E17F0A120A76
:10086000A37F0D120AA3C294E47FC8FEFDFCAB4D2A
:10087000AA4CA94BA84AC31208EE40ECE4F54DF58A
:070880004CF54BF54A808E98
:100A5D00C3ED9FFFEC9EFEAC02AD03120887D3EFF2
:100A6D0094FAEE6480948040037FFA22C3EF9405DC
:0A0A7D00EE6480948050037F052290
:010A8700224C
:03001B00020A25B1
:100A2500C0E0C0D075D000C004C005C006C007AF87
:100A35004DAE4CAD4BAC4AEF2401FFE43EFEE43D28
:100A4500FDE43C8F4D8E4C8D4BF54AD007D006D03A
:080A550005D004D0D0D0E0323E
:03002B000208FFC9
:1008FF00C0E0C0F0C083C082C0D075D000C000C0BF
:10090F0001C002C003C004C005C006C007E55524DE
:10091F0001FFE43554FEE43553FDE435528F558E17
:10092F00548D53F552E47F02FEFDFCAB55AA54A93A
:10093F0053A852C31208EE700F120A88755500752E
:10094F005400755300755200C2CFC2CED007D006E7
:10095F00D005D004D003D002D001D000D0D0D082A7
:07096F00D083D0F0D0E0328C
:080AD000D299E4F508F5492272
:100A8800E5086549601474092549F8E6FF120AD893
:0B0A98000549E549B44003E4F549229C
:100AA3000508E508B44003E4F50874092508F8A629
:020AB300072218
:080AD8003099FDC2998F9922AB
:1009E100AB07AA06902710E58245836036AF03AEB8
:1009F10002AD82AC831208998E588F59AD82AC83B7
:100A0100120887C3EB9FFBEA9EFAE5592430FF12D7
:100A11000AA37C007D0AAF82AE831208998E838F70
:030A21008280C40C
:010A240022AF
:0F0AB5008FBB43E810E5E820E4FBAFBDAEBE22E7
:03000000020AC42D
:0C0AC400787FE4F6D8FD75815902080027
:10088700EF8DF0A4A8F0CF8CF0A428CE8DF0A42E85
:02089700FE223F
:10089900BC000BBE0029EF8DF084FFADF022E4CC43
:1008A900F875F008EF2FFFEE33FEEC33FCEE9DEC0C
:1008B900984005FCEE9DFE0FD5F0E9E4CEFD22ED52
:1008C900F8F5F0EE8420D21CFEADF075F008EF2F9C
:1008D900FFED33FD4007985006D5F0F222C398FD8D
:0508E9000FD5F0EA222A
:1008EE00EB9FF5F0EA9E42F0E99D42F0E89C45F060
:0108FE0022D7
:00000001FF
