:100905007597DE7597ADE4F5A975A41375A51875EA
:10091500F2F875E10175E20275E34075BC0953E82B
:10092500F843E880AF88F588758D96758B968F8826
:10093500758E0875892043884043981075D10875D0
:10094500EF0675A8B875B820C2DE75FC8075DA802B
:1009550075DA4B75EA8075DB8075DB4B75D9084315
:08096500D84043C82843C80430
:01096D002267
:10096E00120905120AF0D294D293E4F526F525F574
:10097E0024F523FD7FFF7E80120AC27D017FFF7E5C
:10098E0088120AC2C298E50B249E60090470107F7B
:10099E00107E2780047F207E4E1209CD120AFAE4C3
:1009AE007F107E27FDFCAB26AA25A924A823C312FF
:0F09BE0008F440EBE4F526F525F524F52380C772
:100A8400C3ED9FFFEC9EFEAC02AD0312088DD3EFC5
:100A940094FAEE6480948040037FFA22C3EF9405B5
:0A0AA400EE6480948050037F052269
:010AAE002225
:03001B00020A1ABC
:100A1A00C0E0C0D075D000C004C005C006C007AF92
:100A2A0026AE25AD24AC23EF2401FFE43EFEE43DCF
:100A3A00FDE43C8F268E258D24F523D007D006D0E1
:080A4A0005D004D0D0D0E03249
:03002B00020800C8
:10080000C0E0C0F0C083C082C0D075D000C000C0BE
:1008100001C002C003C004C005C006C007E52E2405
:1008200001FFE4352DFEE4352CFDE4352B8F2E8EB3
:100830002D8D2CF52BE47F02FEFDFCAB2EAA2DA9FD
:100840002CA82BC31208F47025E50865096013AFC6
:100850000974132FF8E6F5990509E509B410037535
:100860000900752E00752D00752C00752B00C2CF68
:10087000C2CED007D006D005D004D003D002D0011C
:0D088000D000D0D0D082D083D0F0D0E032B4
:03002300020A527C
:0D0A5200C0E0C0D075D000C000C006C007D5
:100A5F00309817E4FF740C2FF8E6FE740B2FF8A6EE
:0A0A6F00060FBF08F0859912C29827
:0B0A7900D007D006D000D0D0D0E03273
:0A0AF000D299E4F508F509020AFAAC
:090AFA007F08780BE4F608DFFC2C
:010B030022CF
:100AAF00AE0874132EF8A6070508E508B41003E482
:030ABF00F5082215
:1009CD00AB07AA06902710E58245836036AF03AECC
:1009DD0002AD82AC8312089F8E318F32AD82AC8313
:1009ED0012088DC3EB9FFBEA9EFAE5322430FF120D
:1009FD000AAF7C007D0AAF82AE8312089F8E838F73
:0D0A0D008280C47F0A120AAF7F0D020AAF7B
:0F0AD5008FBB43E810E5E820E4FBAFBDAEBE22C7
:100AC200AB07AA06ED70048BFB8AFCBD01048BE91F
:030AD2008AEA228B
:03000000020AE40D
:0C0AE400787FE4F6D8FD75813202096EBF
:10088D00EF8DF0A4A8F0CF8CF0A428CE8DF0A42E7F
:02089D00FE2239
:10089F00BC000BBE0029EF8DF084FFADF022E4CC3D
:1008AF00F875F008EF2FFFEE33FEEC33FCEE9DEC06
:1008BF00984005FCEE9DFE0FD5F0E9E4CEFD22ED4C
:1008CF00F8F5F0EE8420D21CFEADF075F008EF2F96
:1008DF00FFED33FD4007985006D5F0F222C398FD87
:0508EF000FD5F0EA2224
:1008F400EB9FF5F0EA9E42F0E99D42F0E89C45F05A
:0109040022D0
:00000001FF
