:1008E7007597DE7597ADE4F5A975A41175A5117512
:1008F700F2FB75D50475E10175E20275E34075BB3E
:100907000A75BC0953E8F843E880AF88F588758D08
:1009170096758B968F88758E087589204388404316
:10092700981075D10875EF06F5E675A888C2DE75CB
:10093700FC8075DA4B75EA8075DB4B75D90843D8AF
:01094700406F
:01094800228C
:100949001208E7120A5FC200C2943000FBD294C2B7
:1009590000120A468E258F267B0A7A007D2C7C019F
:100969001209EE8FFC7BF67AFF7D2C7C01AF26AE57
:10097900251209EE8FEA309823C298AF99EF24BE69
:100989006009047017AF26AE258004AFFC7E001203
:1009990009AA7F0A120A347F0D120A34120A198031
:0109A900A7A6
:1009EE00C3ED9FFFEC9EFEAC02AD03120800D3EFE9
:1009FE0094FAEE6480948040037FFA22C3EF94054C
:0A0A0E00EE6480948050037F0522FF
:010A180022BB
:03001B0002087860
:10087800C0E0C0F0C083C082C0D075D000C000C046
:1008880001C002C003C004C005C006C007E5242497
:1008980001FFE43523FEE43522FDE435218F248E63
:1008A800238D22F521E47F107E27FDFCAB24AA23AB
:1008B800A922A821C3120867700AD200F524F523DB
:1008C800F522F521D007D006D005D004D003D002F8
:0F08D800D001D000D0D0D082D083D0F0D0E03289
:080A5F00D299E4F508F5192213
:100A1900E5086519601474092519F8E6FF120A67D3
:0B0A29000519E519B41003E4F51922CB
:100A34000508E508B41003E4F50874092508F8A6C8
:020A4400072287
:080A67003099FDC2998F99221C
:1009AA00AB07AA06902710E58245836036AF03AEEF
:1009BA0002AD82AC831208128E278F28AD82AC83D7
:1009CA00120800C3EB9FFBEA9EFAE5282430FF12C7
:1009DA000A347C007D0AAF82AE831208128E838F9E
:0309EA008280C444
:0109ED0022E7
:0D0A460043E810E5E820E4FBAFBDAEBE22A2
:03000000020A539E
:0C0A5300787FE4F6D8FD7581280209497F
:10080000EF8DF0A4A8F0CF8CF0A428CE8DF0A42E0C
:02081000FE22C6
:10081200BC000BBE0029EF8DF084FFADF022E4CCCA
:10082200F875F008EF2FFFEE33FEEC33FCEE9DEC93
:10083200984005FCEE9DFE0FD5F0E9E4CEFD22EDD9
:10084200F8F5F0EE8420D21CFEADF075F008EF2F23
:10085200FFED33FD4007985006D5F0F222C398FD14
:050862000FD5F0EA22B1
:10086700EB9FF5F0EA9E42F0E99D42F0E89C45F0E7
:01087700225E
:00000001FF
