:100800007597DE7597ADE4F5A975A41375A51875F0
:10081000F2F875E10175E20275E34075BC0953E831
:10082000F843E880AF88F588758D96758B968F882C
:10083000758E0875892043884043981075D10875D6
:10084000EF0675A8B875B820C2DE75DA4B75DB4BBC
:1008500075D90843D84043C804C200F529F52A7564
:100860002314752482D299C2983098FDC29885309D
:1008700031852F30852E2F852D2E85992DAF2D1268
:100880000AC3E52D2499603524F4603524FB6012F9
:1008900014601714601C2419702BD201AF24AE23EE
:1008A0008016D201AF26AE25800ED201AF28AE272A
:1008B0008006D201AF2CAE2B120A3180ACD2008060
:1008C000A8C20080A4E5316476709EC201AF24AE58
:0A08D00023120A318E238F24808F3B
:0E0AC300AE2174322EF8A6070521532107221A
:100A31008E088F09E4FBFA902710750A04E50A6015
:100A4100517C007D0AAF82AE8312099C8E838F8216
:100A5100150A742D250AF8E624D0FFE434FFFEAD13
:100A610082AC8312098AEF2BFBEE3AFA3001CEAE4B
:100A710008AF0912099CAA06AB07EF2430FF120A3E
:100A8100C3AE08AF09AD82AC8312099C8C088D09F5
:100A910080AB7F0A120AC37F0D120AC3AE02AF03F5
:010AA1002232
:100AA2008FBBE4FF43E810E5E820E4FB0FBF02F44C
:100AB200AFBDAEBE7C177DB4120A04780A1209F1EA
:010AC2002211
:03001B00020ADDF9
:010ADD0032E6
:03002B000208DAEE
:1008DA00C0E0C0F0C0D075D000C000C004C005C0E0
:0308EA0006C0073E
:1008ED00D2947F08120AA28E258F267F09120AA2A2
:1008FD008E278F287F0A120AA28E2B8F2CAE2BAF3C
:10090D002CAC23AD24C3ED9FFFEC9EFEEF252AF505
:10091D002AEE3529F5297C007D0512098AAC06AD34
:10092D0007E52A25E0FFE52933FEED2FFFEC3EFE1E
:10093D00EF780ACEA2E713CE13D8F8FFC3EE64808A
:10094D00948040032000027F00C374FF9FF5EAF5F9
:10095D00FCE5216522600EAF2274322FF8E6F59981
:0C096D00052253220775CDFFC2CFC294B3
:10097900D007D006D005D004D000D0D0D0F0D0E038
:01098900323B
:03000000020AD120
:0C0AD100787FE4F6D8FD7581390208003A
:10098A00EF8DF0A4A8F0CF8CF0A428CE8DF0A42E81
:02099A00FE223B
:10099C00BC000BBE0029EF8DF084FFADF022E4CC3F
:1009AC00F875F008EF2FFFEE33FEEC33FCEE9DEC08
:1009BC00984005FCEE9DFE0FD5F0E9E4CEFD22ED4E
:1009CC00F8F5F0EE8420D21CFEADF075F008EF2F98
:1009DC00FFED33FD4007985006D5F0F222C398FD89
:0509EC000FD5F0EA2226
:1009F100E8600FECC313FCED13FDEE13FEEF13FFE4
:030A0100D8F12207
:100A0400EC8EF0A4CCC5F0CCCDF8EFA4CEC5F02D7F
:100A1400FDE43CFCE8A42EC8C5F03DFDE43CFCEF3D
:0D0A2400A4FFE5F028FEE43DFDE43CFC22CB
:00000001FF
