:100800007597DE7597ADE4F5A975A41175A5017509
:10081000F2FB75D50475E10175E20175E34075BB26
:100820000A75BC0953E8F843E882AF88F588758DEE
:1008300096758B968F88E5C8540453C8FB75CDFF19
:1008400075CCFF75CBFE75CA0243C80442C8758ECD
:100850000875892043884043981075D10875EF06C4
:1008600075E61075A880C2DE75FC8075DA4B75D907
:040870000843D84021
:010874002261
:10089F001208001208E3E4F510E5BDAEBE7802CEF3
:1008AF00C313CE13D8F9F510FF1208758F10120865
:0608BF00ED1208F580E3D4
:0A08E300E4F50AF50BF508F509220B
:02087500A907D1
:10087700C374649FFFE49400AB07FA7C007D0AFE13
:100887001208C58E0C8F0DEB250FF50FEA350EF507
:070897000E8A088B09AF0176
:01089E002237
:03005B000208FC9C
:0608FC00C2D88510FC3299
:0708F500D2998F99C29922EC
:0808ED003098FDC298AF99227A
:030000000208D71C
:0C08D700787FE4F6D8FD75811002089FC0
:1008C500EF8DF0A4A8F0CF8CF0A428CE8DF0A42E47
:0208D500FE2201
:00000001FF
