:100800007597DE7597ADE4F5A975A41175A5017509
:10081000F2FB75D50475E10175E20275E34075BB25
:100820000A75BC0953E8F843E880AF88F588758DF0
:1008300096758B968F88758E0875892043884043FE
:10084000981075D10875EF0675E61075A8A0C2DE80
:1008500075FC8075DA4B75EA8075DB4B75D90843FA
:10086000D840E5C8540453C8FB43C82875CB01756C
:07087000CA0143C80442C89D
:01087700225E
:1009D500E4F514F515120800120A111209F8EF785A
:1009E50002CEC313CE13D8F9F5FCC374FF95FCF5FD
:0309F500EA80E8AD
:0A0A1100E4F50EF50FF50CF50D22CB
:0209AB00A9079A
:1009AD00C374649FFFE49400AB07FA7C007D0AFEDC
:1009BD001208788E088F09EB250BF50BEA350AF531
:0709CD000A8A0C8B0DAF013B
:0109D4002200
:03002B000208F0D8
:1008F000C0E0C0F0C083C082C0D075D000C000C0CE
:1009000001C002C003C004C005C006C007E513242F
:1009100001FFE43512FEE43511FDE435108F138E2E
:10092000128D11F510E47F02FEFDFCAB13AA12A993
:1009300011A810C31208DF7013B2947F61120A1B52
:10094000751300751200751100751000D007D006E0
:10095000D005D004D003D002D001D000D0D0D082B6
:07096000D083D0F0D0E0329B
:080A1B00C2998F993099FD2268
:080A23003098FDC298AF992242
:10096700AB07AA06902710E58245836036AF03AE32
:1009770002AD82AC8312088A8E168F17AD82AC83C4
:10098700120878C3EB9FFBEA9EFAE5172430FF12A3
:100997000A1B7C007D0AAF82AE8312088A8E838F82
:0309A7008280C487
:0109AA00222A
:0D09F80043E810E5E820E4FBAFBDAEBE22F1
:03000000020A05EC
:0C0A0500787FE4F6D8FD7581170209D552
:10087800EF8DF0A4A8F0CF8CF0A428CE8DF0A42E94
:02088800FE224E
:10088A00BC000BBE0029EF8DF084FFADF022E4CC52
:10089A00F875F008EF2FFFEE33FEEC33FCEE9DEC1B
:1008AA00984005FCEE9DFE0FD5F0E9E4CEFD22ED61
:1008BA00F8F5F0EE8420D21CFEADF075F008EF2FAB
:1008CA00FFED33FD4007985006D5F0F222C398FD9C
:0508DA000FD5F0EA2239
:1008DF00EB9FF5F0EA9E42F0E99D42F0E89C45F06F
:0108EF0022E6
:00000001FF
