:100B3C007597DE7597ADE4F5A975A41375A51875B1
:100B4C00F2F875E10175E20275E34075BC0953E8F2
:100B5C00F843E880AF88F588758D96758B968F88ED
:100B6C00758E0875892043884043981075D1087597
:100B7C00EF0675A8B875B820C2DE75FC8075DA80F2
:100B8C0075DA4B75EA8075DB8075DB4B75D90843DC
:080B9C00D84043C82843C804F7
:010BA400222E
:10080000C201E4F521F522120B3C120D66D294D2FE
:10081000937D01E4FFFE120D19C298E4F542F54103
:10082000F540F53FD2947F08120D3D7C007D061205
:1008300009CB8E2F8F307F09120D3D7C007D061273
:1008400009CB8E318F327F0A120D3D7C007D06125E
:1008500009CB8E338F3474FFF52DF52E30012275C0
:100860003B00753C05753D75753E307B0A7A00ADE1
:1008700022AC21120BA5C3E52E9FF52EE52D9EF58A
:100880002D7D02AF2EAE2D120D19300007AF0A12CA
:100890000D06C200E50A6478600302098FAF0C12EE
:1008A0000D2CC0D0AF0B120D2CD0F082F7C0D0AF02
:1008B0000D120D2CD0F082F7C0D0AF0E120D2CD03F
:1008C000F082F75073E50F120A8909216309036466
:1008D00008F36909346C08E3700930750912760071
:1008E00000098F7B007A00790E120C0D8E238F2465
:1008F00002098F7B007A00790E120C0D8E258F264F
:1009000002098F7B007A00790E120C0D8E278F283A
:10091000807D7B007A00790E120C0D8E218F228053
:100920006E7B007A00790E120C0D8E2B8F2C805F5F
:100930007F06803C7F078038E50B120A89096E63C9
:10094000098864097467098269097C7009787309E8
:100950005C7809627909687A0000098FAF30AE2FA0
:10096000802AAF32AE318024AF34AE33801E7F0B8D
:100970007E008018D2018017C2018013AF24AE23FD
:10098000800AAF26AE258004AF28AE27120C62C2C3
:1009900094E47F2C7E01FDFCAB42AA41A940A83F14
:1009A000C3120A6840EBE4F542F541F540F53F0219
:0209B000082419
:100BA500C3ED9FFFEC9E8F82F583AE02AF03AD824E
:100BB500FC1209CBAB07AA06AC3BAD3CAE83AF82BA
:100BC500120A32EF2548F548EE3547F547E5482B3B
:100BD500FBE5473AFAD3EB953EE53D6480F8EA64D8
:100BE500809840047F0180027F00C3EA648094807E
:100BF50050047E0180027E00EE4F6007E4FAFBF5AB
:070C050047F548AE02AF0302
:010C0C0022C5
:03001B00020CB222
:100CB200C0E0C0D075D000C004C005C006C007AFF8
:100CC20042AE41AD40AC3FEF2401FFE43EFEE43DC5
:100CD200FDE43C8F428E418D40F53FD007D006D0D7
:080CE20005D004D0D0D0E032AF
:03002B00020AAF17
:100AAF00C0E0C0F0C083C082C0D075D000C000C00D
:100ABF0001C002C003C004C005C006C007E546243C
:100ACF0001FFE43545FEE43544FDE435438F468EA2
:100ADF00458D44F543E47F02FEFDFCAB46AA45A9D4
:100AEF0044A843C3120A687025E50865096013AF6F
:100AFF000974102FF8E6F5990509E509B410037587
:100B0F000900754600754500754400754300C2CF56
:100B1F00C2CED007D006D005D004D003D002D0016A
:0D0B2F00D000D0D0D082D083D0F0D0E03202
:03002300020CEAE2
:100CEA00309818C298850E0F850D0E850C0D850B50
:0C0CFA000C850A0B85990AC298D20032C2
:0A0D6600D299E4F508F509020D4CDE
:0E0D4C00E4F50AF50BF50CF50DF50EF50F228A
:100D0600AE0874102EF8A6070508E508B41003E42B
:030D1600F50822BB
:100D2C00EFD39439400122EFC394305002C322D345
:010D3C002294
:100C6200AB07AA06902710E58245836036AF03AE34
:100C720002AD82AC831209DD8E358F36AD82AC8334
:100C82001209CBC3EB9FFBEA9EFAE5362430FF1232
:100C92000D067C007D0AAF82AE831209DD8E838F42
:100CA2008280C47F0A120D067F0D120D06020D4CC2
:060C0D008B358A368937A1
:100C1300753903753AE8E4F53BF53CF538783574F6
:100C2300FFF5F0120A791209B224D0FFE434FFFE73
:100C3300AC39AD3A1209CBEF253CF53CEE353BF52B
:100C43003BAE39AF3A7C007D0A1209DD8E398F3A0B
:0E0C53000538E538B404C6120D4CAE3BAF3C7C
:010C61002270
:0F0D3D008FBB43E810E5E820E4FBAFBDAEBE225C
:100D1900AB07AA06BD01048BFB8AFCBD02048BE963
:030D29008AEA2231
:03000000020D5A94
:0C0D5A00787FE4F6D8FD7581480208009F
:1009B200BB010689828A83E0225002E722BBFE0243
:0909C200E32289828A83E4932276
:1009CB00EF8DF0A4A8F0CF8CF0A428CE8DF0A42E40
:0209DB00FE22FA
:1009DD00BC000BBE0029EF8DF084FFADF022E4CCFE
:1009ED00F875F008EF2FFFEE33FEEC33FCEE9DECC7
:1009FD00984005FCEE9DFE0FD5F0E9E4CEFD22ED0D
:100A0D00F8F5F0EE8420D21CFEADF075F008EF2F56
:100A1D00FFED33FD4007985006D5F0F222C398FD47
:050A2D000FD5F0EA22E4
:100A3200C2D5EC30E709B2D5E4C39DFDE49CFCEEDF
:100A420030E715B2D5E4C39FFFE49EFE1209DDC371
:100A5200E49DFDE49CFC80031209DD30D507C3E46C
:060A62009FFFE49EFE224E
:100A6800EB9FF5F0EA9E42F0E99D42F0E89C45F0E4
:010A7800225B
:100A7900FAE6FB0808E6F925F0F618E6CA3AF6227E
:100A8900D083D082F8E4937012740193700DA3A3FC
:100A990093F8740193F5828883E473740293686010
:060AA900EFA3A3A380DF10
:00000001FF
