:100800007597DE7597ADE4F5A975A41375A51875F0
:10081000F2F875E10175E20275E34075BC0953E831
:10082000F843E880AF88F588758D96758B968F882C
:10083000758E0875892043884043981075D10875D6
:10084000EF0675A8B875B820C2DE75DA4B75DB4BBC
:1008500075D90843D84043C804C202F52BF52C755E
:100860002513752688D299C2983098FDC298853292
:1008700033853132853031852F3085992FAF2F1256
:100880000B25E52F12096208A06108A86308B0676C
:1008900008B47308B87808C07908C87A000008D38B
:1008A000D200AF26AE258026D200AF22AE21801E18
:1008B000D20280B5C20280B1D200AF28AE27800E2E
:1008C000D200AF2AAE298006D200AF2EAE2D120A7A
:1008D0007B8096E53364767090C200AF26AE251219
:0808E0000A7B8E258F26808122
:0E0B2500AE2374342EF8A607052353230722AF
:100A7B008E088F09E4FBFA902710750B04C201E571
:100A8B000B60607C007D0AAF82AE831208FA8E8306
:100A9B008F82150B742F250BF8E624D0F50AC3941F
:100AAB00004007E50AD3940A4002D201AF0A7E0048
:100ABB00AD82AC831208E8EF2BFBEE3AFA3000BFA5
:100ACB00AE08AF091208FAAA06AB07EF2430FF12E3
:100ADB000B25AE08AF09AD82AC831208FA8C088DDA
:100AEB0009809C7F0A120B257F0D120B2530010408
:080AFB007A137B88AE02AF0301
:010B030022CF
:100B04008FBBE4FF43E810E5E820E4FB0FBF02F4E9
:100B1400AFBDAEBE7C177DB4120988780A12094FA6
:010B240022AE
:03001B00020B3F96
:010B3F003283
:03002B000209B512
:1009B500C0E0C0F0C0D075D000C000C004C005C004
:0309C50006C00762
:1009C800D2947F08120B048E278F287F09120B04FC
:1009D8008E298F2A7F0A120B048E2D8F2EC3E52AAB
:1009E800952EFFE529952DFE7C007D0A1208E88EDC
:1009F800218F22AE2DAF2EAC25AD26C3ED9FFFEC87
:100A08009EFEEF252CF52CEE352BF52B7C007D0575
:100A18001208E8AC06AD07E52C25E0FFE52B33FE10
:100A2800ED2FFFEC3EFEEF780ACEA2E713CE13D8E7
:100A3800F8FFC3EE6480948040032002027F00C365
:100A480074FF9FF5EAF5FCE5236524600EAF247476
:100A5800342FF8E6F599052453240775CDFFC2CF46
:020A6800C29436
:100A6A00D007D006D005D004D000D0D0D0F0D0E046
:010A7A003249
:03000000020B33BD
:0C0B3300787FE4F6D8FD75813B020800D5
:1008E800EF8DF0A4A8F0CF8CF0A428CE8DF0A42E24
:0208F800FE22DE
:1008FA00BC000BBE0029EF8DF084FFADF022E4CCE2
:10090A00F875F008EF2FFFEE33FEEC33FCEE9DECAA
:10091A00984005FCEE9DFE0FD5F0E9E4CEFD22EDF0
:10092A00F8F5F0EE8420D21CFEADF075F008EF2F3A
:10093A00FFED33FD4007985006D5F0F222C398FD2B
:05094A000FD5F0EA22C8
:10094F00E8600FECC313FCED13FDEE13FEEF13FF86
:03095F00D8F122AA
:10096200D083D082F8E4937012740193700DA3A324
:1009720093F8740193F5828883E473740293686038
:06098200EFA3A3A380DF38
:10098800EC8EF0A4CCC5F0CCCDF8EFA4CEC5F02DFC
:10099800FDE43CFCE8A42EC8C5F03DFDE43CFCEFBA
:0D09A800A4FFE5F028FEE43DFDE43CFC2248
:00000001FF
