:100800007597DE7597ADE4F5A975A41175A5017509
:10081000F2FB75D50475E10175E20175E34075BB26
:100820000A75BC0953E8F843E882AF88F588758DEE
:1008300096758B968F88E5C8540453C8FB75CDFF19
:1008400075CCFF75CBFE75CA0243C80442C8758ECD
:100850000875892043884043981075D10875EF06C4
:1008600075E61075A880C2DE75FC8075DA4B75D907
:040870000843D84021
:010874002261
:1008B700120800E4F510E5BDAEBE7802CEC313CE34
:0708C70013D8F9F51080EFD2
:0A08EC00E4F50EF50FF50CF50D22F2
:10087500C374649FFFE49EAB07FA7C007D0AFE12F9
:1008850008CE8E088F09EB250BF50BEA350AF50A1C
:10089500FEC3EB950DFDEA950CFC8A0C8B0DAB099F
:1008A500AA08E50B2BFBEE3AFAED2BFBEC3AFEAF73
:0108B500033F
:0108B600221F
:03005B000208F6A2
:0608F600C2D88510FC329F
:030000000208E013
:0C08E000787FE4F6D8FD7581100208B79F
:1008CE00EF8DF0A4A8F0CF8CF0A428CE8DF0A42E3E
:0208DE00FE22F8
:00000001FF
