:100A9B007597DE7597ADE4F5A975A41375A5187553
:100AAB00F2F875E10175E20275E34075BC0953E894
:100ABB00F843E880AF88F588758D96758B968F888F
:100ACB00758E0875892043884043981075D1087539
:100ADB00EF0675A8B875B820C2DE75FC8075DA8094
:100AEB0075DA4B75EA8075DB8075DB4B75D908437E
:080AFB00D84043C82843C80499
:010B030022CF
:10080000120A9B120C88D294D293E4FD7FFF7E8063
:10081000120C3B7D017FFF7E88120C3BC298E4F5F1
:1008200036F535F534F533300007AF0A120C28C21F
:1008300000E50A64786003020926AF0C120C4EC072
:10084000D0AF0B120C4ED0F082F7C0D0AF0D120C0F
:100850004ED0F082F7C0D0AF0E120C4ED0F082F71F
:100860005073E50F1209E808BE6308A06408906998
:1008700008D16C08807008CD7508AF760000092695
:100880007B007A00790E120B048E218F220209263A
:100890007B007A00790E120B048E238F2402092626
:1008A0007B007A00790E120B048E258F2680777BD1
:1008B000007A00790E120B048E278F2880687B0047
:1008C0007A00790E120B048E298F2A80597F0680B8
:1008D0003E7F07803AE50B1209E8090563091F64AA
:1008E000090967091969091370090D7308F978086E
:1008F000FD7909017A000009267F0880127F0980AE
:100900000E7F0A800A7F0B80067F0C80027F0D7E9F
:10091000008010AF22AE21800AAF24AE238004AF46
:1009200026AE25120B59E47F107E27FDFCAB36AABC
:1009300035A934A833C31209C740EBE4F536F535C1
:07094000F534F5330208272E
:100BE100C3ED9FFFEC9EFEAC02AD03120960D3EF93
:100BF10094FAEE6480948040037FFA22C3EF940557
:0A0C0100EE6480948050037F05220A
:010C0B0022C6
:03001B00020BA92C
:100BA900C0E0C0D075D000C004C005C006C007AF02
:100BB90036AE35AD34AC33EF2401FFE43EFEE43DFF
:100BC900FDE43C8F368E358D34F533D007D006D011
:080BD90005D004D0D0D0E032B9
:03002B00020A0EB8
:100A0E00C0E0C0F0C083C082C0D075D000C000C0AE
:100A1E0001C002C003C004C005C006C007E53E24E5
:100A2E0001FFE4353DFEE4353CFDE4353B8F3E8E63
:100A3E003D8D3CF53BE47F02FEFDFCAB3EAA3DA99D
:100A4E003CA83BC31209C77025E50865096013AFC2
:100A5E000974102FF8E6F5990509E509B410037528
:100A6E000900753E00753D00753C00753B00C2CF18
:100A7E00C2CED007D006D005D004D003D002D0010C
:0D0A8E00D000D0D0D082D083D0F0D0E032A4
:03002300020C0CC0
:100C0C00309818C298850E0F850D0E850C0D850B2E
:0C0C1C000C850A0B85990AC298D20032A0
:0A0C8800D299E4F508F509020C6E9C
:0E0C6E00E4F50AF50BF50CF50DF50EF50F2269
:100C2800AE0874102EF8A6070508E508B41003E40A
:030C3800F508229A
:100C4E00EFD39439400122EFC394305002C322D324
:010C5E002273
:100B5900AB07AA06902710E58245836036AF03AE3E
:100B690002AD82AC831209728E2B8F2CAD82AC83BD
:100B7900120960C3EB9FFBEA9EFAE52C2430FF12B1
:100B89000C287C007D0AAF82AE831209728E838F96
:100B99008280C47F0A120C287F0D120C28020C6E69
:060B04008B2B8A2C892DC9
:100B0A00752F037530E8E4F531F532F52E782B743C
:100B1A00FFF5F01209D812094724D0FFE434FFFE8A
:100B2A00AC2FAD30120960EF2532F532EE3531F5D2
:100B3A0031AE2FAF307C007D0A1209728E2F8F30B2
:0E0B4A00052EE52EB404C6120C6EAE31AF328D
:010B5800227A
:0F0C5F008FBB43E810E5E820E4FBAFBDAEBE223B
:100C3B00AB07AA06ED70048BFB8AFCBD01048BE9A4
:030C4B008AEA2210
:03000000020C7C73
:0C0C7C00787FE4F6D8FD75813E02080088
:10094700BB010689828A83E0225002E722BBFE02AE
:09095700E32289828A83E49322E1
:10096000EF8DF0A4A8F0CF8CF0A428CE8DF0A42EAB
:02097000FE2265
:10097200BC000BBE0029EF8DF084FFADF022E4CC69
:10098200F875F008EF2FFFEE33FEEC33FCEE9DEC32
:10099200984005FCEE9DFE0FD5F0E9E4CEFD22ED78
:1009A200F8F5F0EE8420D21CFEADF075F008EF2FC2
:1009B200FFED33FD4007985006D5F0F222C398FDB3
:0509C2000FD5F0EA2250
:1009C700EB9FF5F0EA9E42F0E99D42F0E89C45F086
:0109D70022FD
:1009D800FAE6FB0808E6F925F0F618E6CA3AF62220
:1009E800D083D082F8E4937012740193700DA3A39E
:1009F80093F8740193F5828883E4737402936860B2
:060A0800EFA3A3A380DFB1
:00000001FF
