:100B7C007597DE7597ADE4F5A975A41375A5187571
:100B8C00F2F875E10175E20275E34075BC0953E8B2
:100B9C00F843E880AF88F588758D96758B968F88AD
:100BAC00758E0875892043884043981075D1087557
:100BBC00EF0675A8B875B820C2DE75FC8075DA4BE7
:0F0BCC0075EA8075DB4B75D90843D84043C804E0
:010BDB0022F7
:100A4C00D200752113752288E4F52BF52CF52DF5C4
:100A5C002E120B7C120D80D294D293C298E4F51F07
:100A6C00D2947F08120C898E258F267F09120C894F
:100A7C008E278F287F0A120C898E298F2AE4F52362
:100A8C007524FF300022FB7A00792DF5367537017D
:100A9C00F538753901AD22AC21120CC8C3E5249F81
:100AAC00F524FF7E00120C38C201AF23120D77D251
:100ABC0001AF24120D77300207AF0A120D47C202A4
:100ACC00E50A2499602E24FD602124F7602A24FA7B
:100ADC00600D14601024027021AF26AE258010AF7B
:100AEC0028AE27800AAF2AAE2980047F0B7E001225
:100AFC000C388006D2008002C200AF0B120D5AC017
:100B0C00D0AF0A120D5AD0F082F7C0D0AF0C120D34
:100B1C005AD0F082F7C0D0AF0D120D5AD0F082F738
:100B2C00503FE50E120A100B5B630B50640B4E69C1
:100B3C000B666C0B4C700B60750B527600000B6DDA
:100B4C00800D800B8009120BDC8E218F22800F12FE
:100B5C000BDC800A7F067E0080047F077E00120C6F
:100B6C0038C294E51FC3946440F9E4F51F020A6C83
:100CC800C3ED9FFFEC9EFE8FF01208ABAC36AD373C
:100CD8001208198E3A8F3B120880FFAEF0AC38AD7F
:100CE80039120819EF253BF53BEE353AF53AFF3353
:030CF80095E0FE86
:010CFB0022D6
:03001B00020D884B
:010D88003238
:03002B00020CFCC8
:100CFC00C0E0C0D075D000C000C007051FE5086576
:100D0C00096013AF09740F2FF8E6F5990509E50989
:100D1C00B4100375090075CDFAC2CFD007D000D03E
:040D2C00D0D0E03211
:03002300020D309B
:100D3000309813C298850D0E850C0D850B0C850A15
:070D40000B85990AD2023273
:080D8000D299E4F508F50922FF
:100D4700AE08740F2EF8A6070508E508B41003E4EB
:030D5700F508227A
:100D5A00EFD39439400122EFC394305002C322D317
:010D6A002266
:100C3800AB07AA06902710E58245836036AF03AE5E
:100C480002AD82AC8312082B8E2F8F30AD82AC831D
:100C5800120819C3EB9FFBEA9EFAE5302430FF1215
:100C68000D477C007D0AAF82AE8312082B8E838FDE
:100C78008280C47F0A120D477F0D120D47E4F50AE2
:010C88002249
:100BDC007A00790D752F0075300075310D75330362
:100BEC007534E8E4F535F536F532782F74FFF5F009
:100BFC00120A0012080024D0FFE434FFFEAC33AD1F
:100C0C0034120819EF2536F536EE3535F535AE3399
:100C1C00AF347C007D0A12082B8E338F340532E5FD
:0B0C2C0032B404C6E4F50AAE35AF3662
:010C3700229A
:100C89008FBB43E810E5E820E4FBAFBDAEBEE48FBF
:100C9900328E31F530F52FAD30AC2F7B267A17F92E
:100CA900F81208E38F328E318D308C2FE47BE87A8D
:0E0CB90003F9F812096E8F328E318D308C2FB8
:010CC700220A
:090D77003001038FEA228FFC22F7
:03000000020D6B83
:0C0D6B00787FE4F6D8FD75813B020A4C4D
:10080000BB010689828A83E0225002E722BBFE02F6
:09081000E32289828A83E4932229
:10081900EF8DF0A4A8F0CF8CF0A428CE8DF0A42EF3
:02082900FE22AD
:10082B00BC000BBE0029EF8DF084FFADF022E4CCB1
:10083B00F875F008EF2FFFEE33FEEC33FCEE9DEC7A
:10084B00984005FCEE9DFE0FD5F0E9E4CEFD22EDC0
:10085B00F8F5F0EE8420D21CFEADF075F008EF2F0A
:10086B00FFED33FD4007985006D5F0F222C398FDFB
:05087B000FD5F0EA2298
:10088000BB010A89828A83E0F5F0A3E02250068743
:10089000F009E71922BBFE07E3F5F009E319228905
:0B08A000828A83E493F5F07401932238
:1008AB00BB010789828A83020A36500B09C5F027E0
:1008BB00F7C5F01937F722BBFE0D09F8E325F0F366
:1008CB00C5F019E338F322F889828A8374019325E2
:0808DB00F0C5F0F8E4933822A7
:1008E300E88FF0A4CC8BF0A42CFCE98EF0A42CFCB4
:1008F3008AF0EDA42CFCEA8EF0A4CDA8F08BF0A432
:100903002DCC3825F0FDE98FF0A42CCD35F0FCEB90
:100913008EF0A4FEA9F0EB8FF0A4CFC5F02ECD3955
:0F092300FEE43CFCEAA42DCE35F0FDE43CFC22C2
:1009320075F008758200EF2FFFEE33FECD33CDCC7C
:1009420033CCC58233C5829BED9AEC99E5829840FF
:100952000CF582EE9BFEED9AFDEC99FC0FD5F0D6DC
:10096200E4CEFBE4CDFAE4CCF9A88222B800C1B906
:100972000059BA002DEC8BF084CFCECDFCE5F0CB44
:10098200F97818EF2FFFEE33FEED33FDEC33FCEB7D
:1009920033FB10D703994004EB99FB0FD8E5E4F938
:1009A200FA227818EF2FFFEE33FEED33FDEC33FC25
:1009B200C933C910D7059BE99A4007EC9BFCE99A19
:1009C200F90FD8E0E4C9FAE4CCFB2275F010EF2F5E
:1009D200FFEE33FEED33FDCC33CCC833C810D7075E
:1009E2009BEC9AE899400AED9BFDEC9AFCE899F899
:0E09F2000FD5F0DAE4CDFBE4CCFAE4C8F9222C
:100A0000FAE6FB0808E6F925F0F618E6CA3AF622F7
:100A1000D083D082F8E4937012740193700DA3A375
:100A200093F8740193F5828883E473740293686089
:060A3000EFA3A3A380DF89
:100A3600C5F0F8A3E028F0C5F0F8E582158270024B
:060A46001583E038F022E8
:00000001FF
