:100867007597DE7597ADE4F5A975A41175A50175A2
:10087700F2FB75D50475E10175E20275E34075BBBE
:100887000A75BC0953E8F843E880AF88F588758D89
:1008970096758B968F88758E087589204388404397
:1008A700981075D10875EF0675E61075A880C2DE39
:1008B70075FC8075DA4B75EA8075DB4B75D9084393
:0208C700D84017
:0108C900220C
:10090E00E4F510F51112086712099C120978EF78B8
:10091E0002CEC313CE13D8F9F510C374FF9510F59C
:10092E0011AF107E001208CA7F201209A6AF117EE9
:10093E00001208CA7F0D1209A67F0A1209A680CBE3
:0A099C00E4F50EF50FF50CF50D2241
:02094E00A907F7
:10095000C374649FFFE49400AB07FA7C007D0AFE39
:100960001208008E088F09EB250BF50BEA350AF506
:070970000A8A0C8B0DAF0198
:01097700225D
:03005B0002099106
:0B0991008510FC8511EAC2D8C2D932E3
:0809A600C2998F993099FD22DE
:0809AE003098FDC298AF9922B8
:1008CA00AB07AA06902710E58245836036AF03AED0
:1008DA0002AD82AC831208128E128F13AD82AC83E2
:1008EA00120800C3EB9FFBEA9EFAE5132430FF12BD
:1008FA0009A67C007D0AAF82AE831208128E838F0E
:03090A008280C424
:01090D0022C7
:0D09780043E810E5E820E4FBAFBDAEBE2271
:030000000209856D
:0C098500787FE4F6D8FD75811302090E9E
:10080000EF8DF0A4A8F0CF8CF0A428CE8DF0A42E0C
:02081000FE22C6
:10081200BC000BBE0029EF8DF084FFADF022E4CCCA
:10082200F875F008EF2FFFEE33FEEC33FCEE9DEC93
:10083200984005FCEE9DFE0FD5F0E9E4CEFD22EDD9
:10084200F8F5F0EE8420D21CFEADF075F008EF2F23
:10085200FFED33FD4007985006D5F0F222C398FD14
:050862000FD5F0EA22B1
:00000001FF
